:100000003EC058C084C056C055C054C053C052C032
:1000100051C050C04FC04EC04DC04CC04BC0090273
:100020001200010100A064090400000000000000AB
:1000300012011001FF000008030431C60102010291
:1000400003011A036900320063002D007400690087
:100050006E0079002D007500730062001A035400D1
:1000600069006C006C0020004800610072006200B2
:10007000610075006D00040309040100FF8E112466
:100080001FBECFE5D2E0DEBFCDBF10E0A0E6B0E0FE
:10009000EAE8FBE002C005900D92AE36B107D9F751
:1000A00020E0AEE6B0E001C01D92A23AB207E1F74F
:1000B0006CD469C5A5CFA82FB92F80E090E041E0AE
:1000C00050EA609530E009C02D9182279795879579
:1000D00010F084279527305EC8F36F5FA8F308956A
:1000E000EADF8D939D930895A6E088279927AA9526
:1000F00069F00197E1F3B399FCCFB39BFECF81E0A8
:100100009927A6B3019611F0A871D9F70895CF9356
:10011000CFB7CF93C395B39BE9F7B39B0BC0B39B0A
:1001200009C0B39B07C0B39B05C0B39B03C0B39B7F
:1001300001C0D3C00F92DF93C0918300DD27CC575D
:10014000DF4F012EB39B03C0DF910F90E6CF2F93BB
:100150000F931F934F932FEF4F6F06B303FB20F9BD
:100160005F933F9350E03BE065C016B301265029F2
:1001700053FDC89556B3012703FB25F92F7306B32A
:10018000B1F05027102713FB26F906B22230F0F009
:1001900000C016B3012703FB27F90126502906B238
:1001A0002430E8F54F77206816B30000F6CF5027CB
:1001B0004F7D206206B2102F000000C006B300265B
:1001C0005029102713FB26F906B2E2CF4F7B06B366
:1001D000206400C0DACF01265029187106B269F1F7
:1001E0004E7F2160012F16B328C0002650294D7F75
:1001F00006B22260102F29C0012650294B7F06B27B
:100200002460012F2DC016B301265029477F286096
:10021000000006B22EC04F7E06B3206130C04227D8
:1002200006B3499300265029102706B24FEF13FB5F
:1002300020F9297F16B379F2187159F10126502956
:1002400006B2012703FB21F9237F06B371F20026D2
:1002500050293150D0F006B2102713FB22F9277E27
:1002600016B351F201265029012703FB06B223F9E8
:100270002F7C49F2000006B3102713FB24F9002657
:10028000502906B22F7939F270CF10E21ABF002739
:1002900017C03B503195C31BD04010E21ABF0881F4
:1002A000033CF9F00B34E9F0209182001981110F21
:1002B0001213EDCF093651F10D3211F0013E39F72D
:1002C00000937E003F915F914F911F910F912F916D
:1002D000DF910F90CAB7C5FD1DCFCF91CFBFCF9192
:1002E000189520917E00222369F310917F0011233D
:1002F00021F5343022F130937F0020937D0010915E
:1003000083003BE0311B3093830019C000917F00D4
:1003100001309CF40AE53091610034FD11C0009376
:100320006100C2E7D0E010C0052710E000C021C086
:10033000052710E0C89508BB14C03AE501C032EDAE
:10034000032EC0E0D0E032E017B31861C39A08B3BF
:1003500017BB58E120E84FEF20FF052708BB279582
:1003600017951C3F28F700004552B0F720FF0527DE
:10037000279508BB17951C3FB8F629913A9561F768
:10038000077E10918100110F08BBC250D04011F0C0
:100390001093820010E21ABF086017B3177E402F37
:1003A000477E54E05A95F1F708BB17BB48BB8ACF8C
:1003B000CF93DF9360917F00635067FD9AC0809177
:1003C0008300CCE0D0E0C81BD109CC57DF4F80912F
:1003D0007D008D3209F0D5C0683009F088C083EC0B
:1003E000809372008AE58093610010926F0088818B
:1003F000807671F0CE0191D18F3F09F470C09F815A
:10040000911173C09E81981708F06FC0892F6DC03D
:100410002A8110927B00998191110AC010927C0070
:100420002BE730E082E03093710020937000E7CF3B
:10043000953029F4209381002BE730E0F4CF9630FB
:10044000E9F59B81913059F480E390E0909371003D
:100450008093700090E482E190936F00D0CF92304F
:1004600019F48EE190E0F2CF933031F5211109C0FB
:1004700086E790E0909371008093700090E484E0B0
:10048000EBCF213049F48CE590E09093710080939C
:10049000700090E48AE1E0CF223019F482E490E029
:1004A000F4CF233049F484E690E090937100809378
:1004B000700090E08AE0D0CF90E4CECF983059F031
:1004C000993019F420938000B7CF81E09A3009F475
:1004D000B3CF80E0B1CF20E830E081E0A4CF9881B5
:1004E00097FD8E8190E890936F008093600010924A
:1004F0007F008091610084FF2CC0C0916000CF3FDD
:1005000041F16C2FC93008F068E08C2F861B809376
:1005100060008091720098E8892780937200CC2354
:1005200059F020916F0027FF3EC083E790E06FD025
:10053000C82F893008F061C06C2F83E790E0D0DDD0
:1005400084E08C0FC83019F09FEF90936000809387
:10055000610084E196B3987131F48150D9F710921B
:10056000810010928200C1E08111C0E090916E0084
:10057000C91721F0811194D1C0936E00DF91CF9102
:10058000089580916F0087FFB2CFCE0183D08F3F57
:1005900021F48EE180936100AACF882309F4A7CFCC
:1005A00010926000A4CF809170009091710026FF9E
:1005B0001AC0FC0123E730E0462F480F5491D901BF
:1005C0005C932F5F3F4F31964E13F8CF2FEF260FDE
:1005D00030E02F5F3F4F820F931F90937100809305
:1005E0007000C62FA9CFA3E7B0E0FC01262F280F8B
:1005F00031913D932E13FCCFE9CF8FEF80936000B4
:100600008EE1A5CFAC9A8BB780628BBF08950F9314
:100610001F93CF93DF93D82FC62F462F50E08091A2
:100620009E00813091F52091A0003091A100241707
:10063000350708F4C22F0D2F192F802F8D1B8C1713
:1006400088F080919F0081FF07C08091A000909169
:10065000A100892B09F4FFD18C2FDF91CF911F913D
:100660000F9108952091A0003091A10021503109EF
:100670003093A1002093A00081E0232B09F080E0BB
:10068000FAD1F80181938F01D8CF70E060E08D2F0F
:100690005DD2E2CF0F931F93CF93DF93D82FC62F56
:1006A000462F50E080919E00813091F52091A0006E
:1006B0003091A1002417350708F4C22F8D2F292F60
:1006C000982F9D1B9C1788F080919F0081FF07C089
:1006D0008091A0009091A100892B09F4BCD18C2FAE
:1006E000DF91CF911F910F9108954091A0005091FB
:1006F000A100415051095093A1004093A000082F40
:10070000122FF80181918F01ACD1802F212FD8CFEA
:1007100070E060E08D2F1AD2E2CF1F93CF93DF936A
:1007200000D000D0CDB7DEB789839A838AE990E004
:100730009093710080937000A981BA8111968C9179
:10074000833009F4A1C048F48130C1F1823009F44A
:1007500045C0882349F180E039C08E3F09F49AC032
:100760008F3F09F498C084508430A8F7C19AA981BA
:10077000BA8114961C911497110F12968C9180FDDA
:100780001160E981FA81818180FF5BC05CD1812F9A
:1007900068D1811158C082E080939E001092A10020
:1007A0001092A00058D165C0E981FA8182818093BE
:1007B0009A00838180939B0082E008C044E050E06F
:1007C0006AE770E08AE990E0B8D184E00F900F907A
:1007D0000F900F90DF91CF911F910895A981BA8159
:1007E00012968D919C919C0150E040E029833A83C0
:1007F0004B835C8322E736E040E050E069817A81F8
:100800008B819C814BD1DC01CB01885A9D4FAF4F2E
:10081000BF4FBC01CD0120EB34E040E050E06BD194
:100820002830310538F481E090E0909363008093A4
:10083000620091CF2750310930936300209362000A
:100840008ACF08D1A4CF81E080939E00A981BA818C
:1008500016968D919C9117979093A1008093A0007C
:1008600011962C9120939F0021FF03C0892B09F43E
:1008700099CFC19881E0E981FA8126813781232BC4
:1008800009F480E08195A2CF80919E0080939A0028
:1008900081E09CCFFFCF8DB780939A008EB78ACF2F
:1008A000AF92BF92CF92DF92EF92FF920F931F937E
:1008B000CF93DF9328E0E22EF12CC0E0D0E8DD2ECC
:1008C000DC0ED1BE11DC8C01043389E018070CF476
:1008D000CD2DD695E1E0EE1AF10889F78FEF8C0F58
:1008E00081BFEC2EF12CFFEFEF1AFF0A81B78E15B6
:1008F0001F04D1F1CCF1C1BF61B790E080E035D1E8
:1009000000B600FE26C0EFB4F12C86E6A82E80E0EB
:10091000B82EC0E2D0E008EE13E09AE0C92ED12C48
:10092000C701B801D4D0CB01B601D1D060E3680FC4
:10093000CE011BD1CE0111D190E0F50181939193AD
:100940005F01C801B601C3D08B012196C432D10525
:1009500039F7DF91CF911F910F91FF90EF90DF90CA
:10096000CF90BF90AF900895BFDB8453994097FF1D
:1009700003C09195819591098017910714F4C1B72F
:100980008C0181B78F5F81BFB1CF80E830E020E07C
:100990000FB6F89486BD26BD0FBE90E080E0DDD096
:1009A0008F3F09F081BFC0E0D1E08C2F90E08096AE
:1009B000D4D080538A3010F0D0BFC0E00C2F10E0AC
:1009C000C8018096CAD0000F111FF801EA59FF4FE5
:1009D00090E091838083CF5FC43039F729D0BB9AF0
:1009E00084E1E2EBF1EF3197F1F700C000008150B4
:1009F000C1F7BB9888E19EE00FB6F894A89581BD39
:100A00000FBE91BDFFDD7894B99ABD98C598A895A1
:100A1000C198CEDCFCCF8EB98BE28DB9B29BFECFF4
:100A20008DB9769BFACF8FB19FEF9FB9B89A089591
:100A3000C09AC29ABA9AB89A8FEF8FB98AE28DB9E2
:100A400080EF8EB90895C29AB29BFECFC098C2982B
:100A5000C09A0895F8CFC098C29AB29BFECFC09AB0
:100A60000895C2988FB980EFD6DFB8988EEFD3DFA4
:100A7000809581700895CF93DF93D82FB89880EF39
:100A8000CADFC82F91E0D11101C090E091959FB9C4
:100A90008EEFC1DF8C2FDF91CF910895EE27FF27D6
:100AA000AA27BB2708C0A20FB31FE41FF51F220F00
:100AB000331F441F551F969587957795679598F333
:100AC0007040A9F7009799F7BD01CF010895AA1BBF
:100AD000BB1B51E107C0AA1FBB1FA617B70710F029
:100AE000A61BB70B881F991F5A95A9F7809590955B
:100AF000BC01CD010895A1E21A2EAA1BBB1BFD016A
:100B00000DC0AA1FBB1FEE1FFF1FA217B307E407EC
:100B1000F50720F0A21BB30BE40BF50B661F771F44
:100B2000881F991F1A9469F7609570958095909524
:100B30009B01AC01BD01CF010895FB01DC0102C0A6
:100B400005900D9241505040D8F70895DC0101C046
:100B50006D9341505040E0F70895E199FECF9FBB5F
:100B60008EBBE09A99278DB30895262FE199FECF89
:100B70001CBA9FBB8EBB2DBB0FB6F894E29AE19ACC
:0A0B80000FBE01960895F894FFCF10
:0E0B8A00FF5A06000A03310032003300340027
:00000001FF
